{
  "_format": "hh-sol-artifact-1",
  "contractName": "Final",
  "sourceName": "contracts/Final.sol",
  "abi": [
    {
      "inputs": [
        {
          "internalType": "address payable",
          "name": "_buyer",
          "type": "address"
        },
        {
          "internalType": "address payable",
          "name": "_sender",
          "type": "address"
        }
      ],
      "stateMutability": "nonpayable",
      "type": "constructor"
    },
    {
      "inputs": [],
      "name": "ReturnPayment",
      "outputs": [],
      "stateMutability": "nonpayable",
      "type": "function"
    },
    {
      "inputs": [],
      "name": "arbiter",
      "outputs": [
        {
          "internalType": "address payable",
          "name": "",
          "type": "address"
        }
      ],
      "stateMutability": "view",
      "type": "function"
    },
    {
      "inputs": [],
      "name": "buyer",
      "outputs": [
        {
          "internalType": "address payable",
          "name": "",
          "type": "address"
        }
      ],
      "stateMutability": "view",
      "type": "function"
    },
    {
      "inputs": [],
      "name": "confirm_Delivery",
      "outputs": [],
      "stateMutability": "nonpayable",
      "type": "function"
    },
    {
      "inputs": [],
      "name": "confirm_payment",
      "outputs": [],
      "stateMutability": "payable",
      "type": "function"
    },
    {
      "inputs": [],
      "name": "seller",
      "outputs": [
        {
          "internalType": "address payable",
          "name": "",
          "type": "address"
        }
      ],
      "stateMutability": "view",
      "type": "function"
    },
    {
      "inputs": [],
      "name": "state",
      "outputs": [
        {
          "internalType": "enum Final.State",
          "name": "",
          "type": "uint8"
        }
      ],
      "stateMutability": "view",
      "type": "function"
    }
  ],
  "bytecode": "0x608060405234801561001057600080fd5b506040516108b23803806108b283398181016040528101906100329190610189565b33600260006101000a81548173ffffffffffffffffffffffffffffffffffffffff021916908373ffffffffffffffffffffffffffffffffffffffff160217905550816000806101000a81548173ffffffffffffffffffffffffffffffffffffffff021916908373ffffffffffffffffffffffffffffffffffffffff16021790555080600160006101000a81548173ffffffffffffffffffffffffffffffffffffffff021916908373ffffffffffffffffffffffffffffffffffffffff1602179055506000600260146101000a81548160ff0219169083600281111561011a576101196101c9565b5b021790555050506101f8565b600080fd5b600073ffffffffffffffffffffffffffffffffffffffff82169050919050565b60006101568261012b565b9050919050565b6101668161014b565b811461017157600080fd5b50565b6000815190506101838161015d565b92915050565b600080604083850312156101a05761019f610126565b5b60006101ae85828601610174565b92505060206101bf85828601610174565b9150509250929050565b7f4e487b7100000000000000000000000000000000000000000000000000000000600052602160045260246000fd5b6106ab806102076000396000f3fe6080604052600436106100705760003560e01c806355f0cc451161004e57806355f0cc45146100c15780637150d8ae146100d8578063c19d93fb14610103578063fe25e00a1461012e57610070565b806308551a53146100755780630e7be674146100a0578063238e9d93146100aa575b600080fd5b34801561008157600080fd5b5061008a610159565b60405161009791906105c8565b60405180910390f35b6100a861017f565b005b3480156100b657600080fd5b506100bf61029e565b005b3480156100cd57600080fd5b506100d6610425565b005b3480156100e457600080fd5b506100ed61052a565b6040516100fa91906105c8565b60405180910390f35b34801561010f57600080fd5b5061011861054e565b604051610125919061065a565b60405180910390f35b34801561013a57600080fd5b50610143610561565b60405161015091906105c8565b60405180910390f35b600160009054906101000a900473ffffffffffffffffffffffffffffffffffffffff1681565b60008054906101000a900473ffffffffffffffffffffffffffffffffffffffff1673ffffffffffffffffffffffffffffffffffffffff163373ffffffffffffffffffffffffffffffffffffffff1614806102265750600260009054906101000a900473ffffffffffffffffffffffffffffffffffffffff1673ffffffffffffffffffffffffffffffffffffffff163373ffffffffffffffffffffffffffffffffffffffff16145b61022f57600080fd5b6000806002811115610244576102436105e3565b5b600260149054906101000a900460ff166002811115610266576102656105e3565b5b1461027057600080fd5b6001600260146101000a81548160ff02191690836002811115610296576102956105e3565b5b021790555050565b60008054906101000a900473ffffffffffffffffffffffffffffffffffffffff1673ffffffffffffffffffffffffffffffffffffffff163373ffffffffffffffffffffffffffffffffffffffff1614806103455750600260009054906101000a900473ffffffffffffffffffffffffffffffffffffffff1673ffffffffffffffffffffffffffffffffffffffff163373ffffffffffffffffffffffffffffffffffffffff16145b61034e57600080fd5b6001806002811115610363576103626105e3565b5b600260149054906101000a900460ff166002811115610385576103846105e3565b5b1461038f57600080fd5b600160009054906101000a900473ffffffffffffffffffffffffffffffffffffffff1673ffffffffffffffffffffffffffffffffffffffff166108fc479081150290604051600060405180830381858888f193505050501580156103f7573d6000803e3d6000fd5b5060028060146101000a81548160ff0219169083600281111561041d5761041c6105e3565b5b021790555050565b600160009054906101000a900473ffffffffffffffffffffffffffffffffffffffff1673ffffffffffffffffffffffffffffffffffffffff163373ffffffffffffffffffffffffffffffffffffffff161461047f57600080fd5b6001806002811115610494576104936105e3565b5b600260149054906101000a900460ff1660028111156104b6576104b56105e3565b5b146104c057600080fd5b60008054906101000a900473ffffffffffffffffffffffffffffffffffffffff1673ffffffffffffffffffffffffffffffffffffffff166108fc479081150290604051600060405180830381858888f19350505050158015610526573d6000803e3d6000fd5b5050565b60008054906101000a900473ffffffffffffffffffffffffffffffffffffffff1681565b600260149054906101000a900460ff1681565b600260009054906101000a900473ffffffffffffffffffffffffffffffffffffffff1681565b600073ffffffffffffffffffffffffffffffffffffffff82169050919050565b60006105b282610587565b9050919050565b6105c2816105a7565b82525050565b60006020820190506105dd60008301846105b9565b92915050565b7f4e487b7100000000000000000000000000000000000000000000000000000000600052602160045260246000fd5b60038110610623576106226105e3565b5b50565b600081905061063482610612565b919050565b600061064482610626565b9050919050565b61065481610639565b82525050565b600060208201905061066f600083018461064b565b9291505056fea26469706673582212205d5dfd1dbfb93de1114e1292e80334d97312e3ca18b547e01aa90392c375a43664736f6c63430008120033",
  "linkReferences": {},
  "deployedLinkReferences": {}
}