{
  "_format": "hh-sol-artifact-1",
  "contractName": "Final",
  "sourceName": "contracts/final-v.sol",
  "abi": [
    {
      "inputs": [
        {
          "internalType": "address payable",
          "name": "_buyer",
          "type": "address"
        },
        {
          "internalType": "address payable",
          "name": "_sender",
          "type": "address"
        }
      ],
      "stateMutability": "nonpayable",
      "type": "constructor"
    },
    {
      "inputs": [],
      "name": "ReturnPayment",
      "outputs": [],
      "stateMutability": "nonpayable",
      "type": "function"
    },
    {
      "inputs": [],
      "name": "arbiter",
      "outputs": [
        {
          "internalType": "address payable",
          "name": "",
          "type": "address"
        }
      ],
      "stateMutability": "view",
      "type": "function"
    },
    {
      "inputs": [],
      "name": "buyer",
      "outputs": [
        {
          "internalType": "address payable",
          "name": "",
          "type": "address"
        }
      ],
      "stateMutability": "view",
      "type": "function"
    },
    {
      "inputs": [],
      "name": "confirm_Delivery",
      "outputs": [],
      "stateMutability": "nonpayable",
      "type": "function"
    },
    {
      "inputs": [],
      "name": "confirm_payment",
      "outputs": [],
      "stateMutability": "payable",
      "type": "function"
    },
    {
      "inputs": [],
      "name": "seller",
      "outputs": [
        {
          "internalType": "address payable",
          "name": "",
          "type": "address"
        }
      ],
      "stateMutability": "view",
      "type": "function"
    },
    {
      "inputs": [],
      "name": "state",
      "outputs": [
        {
          "internalType": "enum Final.State",
          "name": "",
          "type": "uint8"
        }
      ],
      "stateMutability": "view",
      "type": "function"
    }
  ],
  "bytecode": "0x608060405234801561001057600080fd5b5060405161091438038061091483398181016040528101906100329190610189565b33600260006101000a81548173ffffffffffffffffffffffffffffffffffffffff021916908373ffffffffffffffffffffffffffffffffffffffff160217905550816000806101000a81548173ffffffffffffffffffffffffffffffffffffffff021916908373ffffffffffffffffffffffffffffffffffffffff16021790555080600160006101000a81548173ffffffffffffffffffffffffffffffffffffffff021916908373ffffffffffffffffffffffffffffffffffffffff1602179055506000600260146101000a81548160ff0219169083600281111561011a576101196101c9565b5b021790555050506101f8565b600080fd5b600073ffffffffffffffffffffffffffffffffffffffff82169050919050565b60006101568261012b565b9050919050565b6101668161014b565b811461017157600080fd5b50565b6000815190506101838161015d565b92915050565b600080604083850312156101a05761019f610126565b5b60006101ae85828601610174565b92505060206101bf85828601610174565b9150509250929050565b7f4e487b7100000000000000000000000000000000000000000000000000000000600052602160045260246000fd5b61070d806102076000396000f3fe6080604052600436106100705760003560e01c806355f0cc451161004e57806355f0cc45146100c15780637150d8ae146100d8578063c19d93fb14610103578063fe25e00a1461012e57610070565b806308551a53146100755780630e7be674146100a0578063238e9d93146100aa575b600080fd5b34801561008157600080fd5b5061008a610159565b604051610097919061062a565b60405180910390f35b6100a861017f565b005b3480156100b657600080fd5b506100bf61029e565b005b3480156100cd57600080fd5b506100d6610426565b005b3480156100e457600080fd5b506100ed61058c565b6040516100fa919061062a565b60405180910390f35b34801561010f57600080fd5b506101186105b0565b60405161012591906106bc565b60405180910390f35b34801561013a57600080fd5b506101436105c3565b604051610150919061062a565b60405180910390f35b600160009054906101000a900473ffffffffffffffffffffffffffffffffffffffff1681565b60008054906101000a900473ffffffffffffffffffffffffffffffffffffffff1673ffffffffffffffffffffffffffffffffffffffff163373ffffffffffffffffffffffffffffffffffffffff1614806102265750600260009054906101000a900473ffffffffffffffffffffffffffffffffffffffff1673ffffffffffffffffffffffffffffffffffffffff163373ffffffffffffffffffffffffffffffffffffffff16145b61022f57600080fd5b600080600281111561024457610243610645565b5b600260149054906101000a900460ff16600281111561026657610265610645565b5b1461027057600080fd5b6001600260146101000a81548160ff0219169083600281111561029657610295610645565b5b021790555050565b60008054906101000a900473ffffffffffffffffffffffffffffffffffffffff1673ffffffffffffffffffffffffffffffffffffffff163373ffffffffffffffffffffffffffffffffffffffff1614806103455750600260009054906101000a900473ffffffffffffffffffffffffffffffffffffffff1673ffffffffffffffffffffffffffffffffffffffff163373ffffffffffffffffffffffffffffffffffffffff16145b61034e57600080fd5b600180600281111561036357610362610645565b5b600260149054906101000a900460ff16600281111561038557610384610645565b5b1461038f57600080fd5b600160009054906101000a900473ffffffffffffffffffffffffffffffffffffffff1673ffffffffffffffffffffffffffffffffffffffff166108fc479081150290604051600060405180830381858888f193505050501580156103f7573d6000803e3d6000fd5b506000600260146101000a81548160ff0219169083600281111561041e5761041d610645565b5b021790555050565b60008054906101000a900473ffffffffffffffffffffffffffffffffffffffff1673ffffffffffffffffffffffffffffffffffffffff163373ffffffffffffffffffffffffffffffffffffffff1614806104cd5750600260009054906101000a900473ffffffffffffffffffffffffffffffffffffffff1673ffffffffffffffffffffffffffffffffffffffff163373ffffffffffffffffffffffffffffffffffffffff16145b6104d657600080fd5b60018060028111156104eb576104ea610645565b5b600260149054906101000a900460ff16600281111561050d5761050c610645565b5b1461051757600080fd5b3373ffffffffffffffffffffffffffffffffffffffff166108fc479081150290604051600060405180830381858888f1935050505015801561055d573d6000803e3d6000fd5b506000600260146101000a81548160ff0219169083600281111561058457610583610645565b5b021790555050565b60008054906101000a900473ffffffffffffffffffffffffffffffffffffffff1681565b600260149054906101000a900460ff1681565b600260009054906101000a900473ffffffffffffffffffffffffffffffffffffffff1681565b600073ffffffffffffffffffffffffffffffffffffffff82169050919050565b6000610614826105e9565b9050919050565b61062481610609565b82525050565b600060208201905061063f600083018461061b565b92915050565b7f4e487b7100000000000000000000000000000000000000000000000000000000600052602160045260246000fd5b6003811061068557610684610645565b5b50565b600081905061069682610674565b919050565b60006106a682610688565b9050919050565b6106b68161069b565b82525050565b60006020820190506106d160008301846106ad565b9291505056fea26469706673582212205063bfbe4793a592f5fe99dbafa439b144b3ffd99f407b48ec46a104743b993964736f6c63430008120033",
  "linkReferences": {},
  "deployedLinkReferences": {}
}