{
  "_format": "hh-sol-artifact-1",
  "contractName": "Arbit",
  "sourceName": "contracts/Arbit.sol",
  "abi": [
    {
      "inputs": [
        {
          "internalType": "address payable",
          "name": "_buyer",
          "type": "address"
        },
        {
          "internalType": "address payable",
          "name": "_seller",
          "type": "address"
        },
        {
          "internalType": "address payable",
          "name": "_arbiter",
          "type": "address"
        }
      ],
      "stateMutability": "nonpayable",
      "type": "constructor"
    },
    {
      "inputs": [],
      "name": "ReturnPayment",
      "outputs": [],
      "stateMutability": "nonpayable",
      "type": "function"
    },
    {
      "inputs": [],
      "name": "arbiter",
      "outputs": [
        {
          "internalType": "address payable",
          "name": "",
          "type": "address"
        }
      ],
      "stateMutability": "view",
      "type": "function"
    },
    {
      "inputs": [],
      "name": "buyer",
      "outputs": [
        {
          "internalType": "address payable",
          "name": "",
          "type": "address"
        }
      ],
      "stateMutability": "view",
      "type": "function"
    },
    {
      "inputs": [],
      "name": "confirm_Delivery",
      "outputs": [],
      "stateMutability": "nonpayable",
      "type": "function"
    },
    {
      "inputs": [
        {
          "internalType": "uint256",
          "name": "_amount",
          "type": "uint256"
        }
      ],
      "name": "confirm_payment",
      "outputs": [],
      "stateMutability": "payable",
      "type": "function"
    },
    {
      "inputs": [],
      "name": "seller",
      "outputs": [
        {
          "internalType": "address payable",
          "name": "",
          "type": "address"
        }
      ],
      "stateMutability": "view",
      "type": "function"
    },
    {
      "inputs": [],
      "name": "state",
      "outputs": [
        {
          "internalType": "enum Arbit.State",
          "name": "",
          "type": "uint8"
        }
      ],
      "stateMutability": "view",
      "type": "function"
    }
  ],
  "bytecode": "0x608060405234801561001057600080fd5b50604051610a00380380610a008339818101604052810190610032919061018a565b80600260006101000a81548173ffffffffffffffffffffffffffffffffffffffff021916908373ffffffffffffffffffffffffffffffffffffffff160217905550826000806101000a81548173ffffffffffffffffffffffffffffffffffffffff021916908373ffffffffffffffffffffffffffffffffffffffff16021790555081600160006101000a81548173ffffffffffffffffffffffffffffffffffffffff021916908373ffffffffffffffffffffffffffffffffffffffff1602179055506000600260146101000a81548160ff0219169083600281111561011a576101196101dd565b5b021790555050505061020c565b600080fd5b600073ffffffffffffffffffffffffffffffffffffffff82169050919050565b60006101578261012c565b9050919050565b6101678161014c565b811461017257600080fd5b50565b6000815190506101848161015e565b92915050565b6000806000606084860312156101a3576101a2610127565b5b60006101b186828701610175565b93505060206101c286828701610175565b92505060406101d386828701610175565b9150509250925092565b7f4e487b7100000000000000000000000000000000000000000000000000000000600052602160045260246000fd5b6107e58061021b6000396000f3fe6080604052600436106100705760003560e01c80637150d8ae1161004e5780637150d8ae146100ce578063bc6c875f146100f9578063c19d93fb14610115578063fe25e00a1461014057610070565b806308551a5314610075578063238e9d93146100a057806355f0cc45146100b7575b600080fd5b34801561008157600080fd5b5061008a61016b565b604051610097919061061d565b60405180910390f35b3480156100ac57600080fd5b506100b5610191565b005b3480156100c357600080fd5b506100cc610318565b005b3480156100da57600080fd5b506100e361041d565b6040516100f0919061061d565b60405180910390f35b610113600480360381019061010e9190610673565b610441565b005b34801561012157600080fd5b5061012a6105a3565b6040516101379190610717565b60405180910390f35b34801561014c57600080fd5b506101556105b6565b604051610162919061061d565b60405180910390f35b600160009054906101000a900473ffffffffffffffffffffffffffffffffffffffff1681565b60008054906101000a900473ffffffffffffffffffffffffffffffffffffffff1673ffffffffffffffffffffffffffffffffffffffff163373ffffffffffffffffffffffffffffffffffffffff1614806102385750600260009054906101000a900473ffffffffffffffffffffffffffffffffffffffff1673ffffffffffffffffffffffffffffffffffffffff163373ffffffffffffffffffffffffffffffffffffffff16145b61024157600080fd5b6001806002811115610256576102556106a0565b5b600260149054906101000a900460ff166002811115610278576102776106a0565b5b1461028257600080fd5b600160009054906101000a900473ffffffffffffffffffffffffffffffffffffffff1673ffffffffffffffffffffffffffffffffffffffff166108fc479081150290604051600060405180830381858888f193505050501580156102ea573d6000803e3d6000fd5b5060028060146101000a81548160ff021916908360028111156103105761030f6106a0565b5b021790555050565b600160009054906101000a900473ffffffffffffffffffffffffffffffffffffffff1673ffffffffffffffffffffffffffffffffffffffff163373ffffffffffffffffffffffffffffffffffffffff161461037257600080fd5b6001806002811115610387576103866106a0565b5b600260149054906101000a900460ff1660028111156103a9576103a86106a0565b5b146103b357600080fd5b60008054906101000a900473ffffffffffffffffffffffffffffffffffffffff1673ffffffffffffffffffffffffffffffffffffffff166108fc479081150290604051600060405180830381858888f19350505050158015610419573d6000803e3d6000fd5b5050565b60008054906101000a900473ffffffffffffffffffffffffffffffffffffffff1681565b60008054906101000a900473ffffffffffffffffffffffffffffffffffffffff1673ffffffffffffffffffffffffffffffffffffffff163373ffffffffffffffffffffffffffffffffffffffff1614806104e85750600260009054906101000a900473ffffffffffffffffffffffffffffffffffffffff1673ffffffffffffffffffffffffffffffffffffffff163373ffffffffffffffffffffffffffffffffffffffff16145b6104f157600080fd5b6000806002811115610506576105056106a0565b5b600260149054906101000a900460ff166002811115610528576105276106a0565b5b1461053257600080fd5b813414610574576040517f08c379a000000000000000000000000000000000000000000000000000000000815260040161056b9061078f565b60405180910390fd5b6001600260146101000a81548160ff0219169083600281111561059a576105996106a0565b5b02179055505050565b600260149054906101000a900460ff1681565b600260009054906101000a900473ffffffffffffffffffffffffffffffffffffffff1681565b600073ffffffffffffffffffffffffffffffffffffffff82169050919050565b6000610607826105dc565b9050919050565b610617816105fc565b82525050565b6000602082019050610632600083018461060e565b92915050565b600080fd5b6000819050919050565b6106508161063d565b811461065b57600080fd5b50565b60008135905061066d81610647565b92915050565b60006020828403121561068957610688610638565b5b60006106978482850161065e565b91505092915050565b7f4e487b7100000000000000000000000000000000000000000000000000000000600052602160045260246000fd5b600381106106e0576106df6106a0565b5b50565b60008190506106f1826106cf565b919050565b6000610701826106e3565b9050919050565b610711816106f6565b82525050565b600060208201905061072c6000830184610708565b92915050565b600082825260208201905092915050565b7f496e76616c6964207061796d656e7420616d6f756e7400000000000000000000600082015250565b6000610779601683610732565b915061078482610743565b602082019050919050565b600060208201905081810360008301526107a88161076c565b905091905056fea2646970667358221220b7cc1fccc4007e407338bac740fa089191ee2efada8d910562dc2920994b5dd264736f6c63430008120033",
  "linkReferences": {},
  "deployedLinkReferences": {}
}