{
  "_format": "hh-sol-artifact-1",
  "contractName": "EscrowSol",
  "sourceName": "contracts/Kirua.sol",
  "abi": [
    {
      "inputs": [],
      "name": "beneficiary",
      "outputs": [
        {
          "internalType": "address",
          "name": "",
          "type": "address"
        }
      ],
      "stateMutability": "view",
      "type": "function"
    },
    {
      "inputs": [
        {
          "internalType": "address",
          "name": "counterpart",
          "type": "address"
        }
      ],
      "name": "fund",
      "outputs": [],
      "stateMutability": "payable",
      "type": "function"
    },
    {
      "inputs": [],
      "name": "funder",
      "outputs": [
        {
          "internalType": "address",
          "name": "",
          "type": "address"
        }
      ],
      "stateMutability": "view",
      "type": "function"
    },
    {
      "inputs": [],
      "name": "getBalance",
      "outputs": [
        {
          "internalType": "uint256",
          "name": "",
          "type": "uint256"
        }
      ],
      "stateMutability": "view",
      "type": "function"
    },
    {
      "inputs": [],
      "name": "release",
      "outputs": [],
      "stateMutability": "payable",
      "type": "function"
    },
    {
      "inputs": [],
      "name": "revertPayment",
      "outputs": [],
      "stateMutability": "payable",
      "type": "function"
    }
  ],
  "bytecode": "0x608060405234801561001057600080fd5b50610461806100206000396000f3fe6080604052600436106100555760003560e01c8063041ae8801461005a57806312065fe01461008557806323024408146100b057806338af3eed146100cc57806386d1a69f146100f7578063f551e4e914610101575b600080fd5b34801561006657600080fd5b5061006f61010b565b60405161007c919061037e565b60405180910390f35b34801561009157600080fd5b5061009a61012f565b6040516100a791906103b2565b60405180910390f35b6100ca60048036038101906100c591906103fe565b610137565b005b3480156100d857600080fd5b506100e16101bb565b6040516100ee919061037e565b60405180910390f35b6100ff6101e1565b005b6101096102a0565b005b60008054906101000a900473ffffffffffffffffffffffffffffffffffffffff1681565b600047905090565b80600160006101000a81548173ffffffffffffffffffffffffffffffffffffffff021916908373ffffffffffffffffffffffffffffffffffffffff160217905550336000806101000a81548173ffffffffffffffffffffffffffffffffffffffff021916908373ffffffffffffffffffffffffffffffffffffffff16021790555050565b600160009054906101000a900473ffffffffffffffffffffffffffffffffffffffff1681565b60008054906101000a900473ffffffffffffffffffffffffffffffffffffffff1673ffffffffffffffffffffffffffffffffffffffff163373ffffffffffffffffffffffffffffffffffffffff160361029e57600160009054906101000a900473ffffffffffffffffffffffffffffffffffffffff1673ffffffffffffffffffffffffffffffffffffffff166108fc479081150290604051600060405180830381858888f1935050505015801561029c573d6000803e3d6000fd5b505b565b60008054906101000a900473ffffffffffffffffffffffffffffffffffffffff1673ffffffffffffffffffffffffffffffffffffffff163373ffffffffffffffffffffffffffffffffffffffff160361033b573373ffffffffffffffffffffffffffffffffffffffff166108fc479081150290604051600060405180830381858888f19350505050158015610339573d6000803e3d6000fd5b505b565b600073ffffffffffffffffffffffffffffffffffffffff82169050919050565b60006103688261033d565b9050919050565b6103788161035d565b82525050565b6000602082019050610393600083018461036f565b92915050565b6000819050919050565b6103ac81610399565b82525050565b60006020820190506103c760008301846103a3565b92915050565b600080fd5b6103db8161035d565b81146103e657600080fd5b50565b6000813590506103f8816103d2565b92915050565b600060208284031215610414576104136103cd565b5b6000610422848285016103e9565b9150509291505056fea26469706673582212206d2f5c3859f741133bc4a0cc3d112283b67b08b614af966b5887cf5111d3b30164736f6c63430008120033",
  "linkReferences": {},
  "deployedLinkReferences": {}
}