{
  "_format": "hh-sol-artifact-1",
  "contractName": "OrderEscrow",
  "sourceName": "contracts/ShopSecure.sol",
  "abi": [
    {
      "inputs": [
        {
          "internalType": "address payable",
          "name": "_buyer",
          "type": "address"
        },
        {
          "internalType": "address payable",
          "name": "_seller",
          "type": "address"
        }
      ],
      "stateMutability": "nonpayable",
      "type": "constructor"
    },
    {
      "anonymous": false,
      "inputs": [
        {
          "indexed": false,
          "internalType": "uint256",
          "name": "orderNo",
          "type": "uint256"
        }
      ],
      "name": "DeliveryConfirmed",
      "type": "event"
    },
    {
      "anonymous": false,
      "inputs": [
        {
          "indexed": false,
          "internalType": "uint256",
          "name": "orderNo",
          "type": "uint256"
        },
        {
          "indexed": false,
          "internalType": "address",
          "name": "userAddress",
          "type": "address"
        },
        {
          "indexed": false,
          "internalType": "uint256[]",
          "name": "itemIds",
          "type": "uint256[]"
        },
        {
          "indexed": false,
          "internalType": "string[]",
          "name": "itemNames",
          "type": "string[]"
        },
        {
          "indexed": false,
          "internalType": "uint256[]",
          "name": "itemCosts",
          "type": "uint256[]"
        },
        {
          "indexed": false,
          "internalType": "string",
          "name": "deliveryAddress",
          "type": "string"
        },
        {
          "indexed": false,
          "internalType": "uint256",
          "name": "paymentAmount",
          "type": "uint256"
        }
      ],
      "name": "OrderCreated",
      "type": "event"
    },
    {
      "anonymous": false,
      "inputs": [
        {
          "indexed": false,
          "internalType": "uint256",
          "name": "orderNo",
          "type": "uint256"
        }
      ],
      "name": "PaymentReverted",
      "type": "event"
    },
    {
      "inputs": [],
      "name": "buyer",
      "outputs": [
        {
          "internalType": "address payable",
          "name": "",
          "type": "address"
        }
      ],
      "stateMutability": "view",
      "type": "function"
    },
    {
      "inputs": [
        {
          "internalType": "uint256",
          "name": "_orderNo",
          "type": "uint256"
        }
      ],
      "name": "confirmDelivery",
      "outputs": [],
      "stateMutability": "payable",
      "type": "function"
    },
    {
      "inputs": [
        {
          "internalType": "uint256",
          "name": "_orderNo",
          "type": "uint256"
        }
      ],
      "name": "confirmPayment",
      "outputs": [],
      "stateMutability": "payable",
      "type": "function"
    },
    {
      "inputs": [
        {
          "internalType": "uint256[]",
          "name": "_itemIds",
          "type": "uint256[]"
        },
        {
          "internalType": "string[]",
          "name": "_itemNames",
          "type": "string[]"
        },
        {
          "internalType": "uint256[]",
          "name": "_itemCosts",
          "type": "uint256[]"
        },
        {
          "internalType": "string",
          "name": "_deliveryAddress",
          "type": "string"
        },
        {
          "internalType": "uint256",
          "name": "_paymentAmount",
          "type": "uint256"
        }
      ],
      "name": "createOrder",
      "outputs": [],
      "stateMutability": "nonpayable",
      "type": "function"
    },
    {
      "inputs": [],
      "name": "currentState",
      "outputs": [
        {
          "internalType": "enum OrderEscrow.State",
          "name": "",
          "type": "uint8"
        }
      ],
      "stateMutability": "view",
      "type": "function"
    },
    {
      "inputs": [
        {
          "internalType": "uint256",
          "name": "_orderNo",
          "type": "uint256"
        }
      ],
      "name": "getOrder",
      "outputs": [
        {
          "internalType": "address",
          "name": "",
          "type": "address"
        },
        {
          "internalType": "uint256[]",
          "name": "",
          "type": "uint256[]"
        },
        {
          "internalType": "string[]",
          "name": "",
          "type": "string[]"
        },
        {
          "internalType": "uint256[]",
          "name": "",
          "type": "uint256[]"
        },
        {
          "internalType": "string",
          "name": "",
          "type": "string"
        },
        {
          "internalType": "uint256",
          "name": "",
          "type": "uint256"
        },
        {
          "internalType": "bool",
          "name": "",
          "type": "bool"
        },
        {
          "internalType": "bool",
          "name": "",
          "type": "bool"
        }
      ],
      "stateMutability": "view",
      "type": "function"
    },
    {
      "inputs": [],
      "name": "orderCount",
      "outputs": [
        {
          "internalType": "uint256",
          "name": "",
          "type": "uint256"
        }
      ],
      "stateMutability": "view",
      "type": "function"
    },
    {
      "inputs": [
        {
          "internalType": "uint256",
          "name": "",
          "type": "uint256"
        }
      ],
      "name": "orders",
      "outputs": [
        {
          "internalType": "uint256",
          "name": "orderNo",
          "type": "uint256"
        },
        {
          "internalType": "address",
          "name": "userAddress",
          "type": "address"
        },
        {
          "internalType": "string",
          "name": "deliveryAddress",
          "type": "string"
        },
        {
          "internalType": "uint256",
          "name": "paymentAmount",
          "type": "uint256"
        },
        {
          "internalType": "bool",
          "name": "isDelivered",
          "type": "bool"
        },
        {
          "internalType": "bool",
          "name": "isPaymentReverted",
          "type": "bool"
        }
      ],
      "stateMutability": "view",
      "type": "function"
    },
    {
      "inputs": [
        {
          "internalType": "uint256",
          "name": "_orderNo",
          "type": "uint256"
        }
      ],
      "name": "revertPayment",
      "outputs": [],
      "stateMutability": "payable",
      "type": "function"
    },
    {
      "inputs": [],
      "name": "seller",
      "outputs": [
        {
          "internalType": "address payable",
          "name": "",
          "type": "address"
        }
      ],
      "stateMutability": "view",
      "type": "function"
    }
  ],
  "bytecode": "0x60806040523480156200001157600080fd5b50604051620020f1380380620020f183398181016040528101906200003791906200012b565b81600060016101000a81548173ffffffffffffffffffffffffffffffffffffffff021916908373ffffffffffffffffffffffffffffffffffffffff16021790555080600160006101000a81548173ffffffffffffffffffffffffffffffffffffffff021916908373ffffffffffffffffffffffffffffffffffffffff160217905550505062000172565b600080fd5b600073ffffffffffffffffffffffffffffffffffffffff82169050919050565b6000620000f382620000c6565b9050919050565b6200010581620000e6565b81146200011157600080fd5b50565b6000815190506200012581620000fa565b92915050565b60008060408385031215620001455762000144620000c1565b5b6000620001558582860162000114565b9250506020620001688582860162000114565b9150509250929050565b611f6f80620001826000396000f3fe6080604052600436106100915760003560e01c8063876ca09f11610059578063876ca09f1461015e578063a85c38ef1461017a578063d09ef241146101bc578063e3bd9fd814610200578063fd84cb971461022957610091565b806308551a53146100965780630c3f6acf146100c15780632453ffa8146100ec5780637073597d146101175780637150d8ae14610133575b600080fd5b3480156100a257600080fd5b506100ab610245565b6040516100b8919061108e565b60405180910390f35b3480156100cd57600080fd5b506100d661026b565b6040516100e39190611120565b60405180910390f35b3480156100f857600080fd5b5061010161027c565b60405161010e9190611154565b60405180910390f35b610131600480360381019061012c91906111af565b610282565b005b34801561013f57600080fd5b5061014861048e565b604051610155919061108e565b60405180910390f35b610178600480360381019061017391906111af565b6104b4565b005b34801561018657600080fd5b506101a1600480360381019061019c91906111af565b61061e565b6040516101b3969594939291906112a8565b60405180910390f35b3480156101c857600080fd5b506101e360048036038101906101de91906111af565b61071c565b6040516101f79897969594939291906114da565b60405180910390f35b34801561020c57600080fd5b5061022760048036038101906102229190611852565b610a90565b005b610243600480360381019061023e91906111af565b610cf0565b005b600160009054906101000a900473ffffffffffffffffffffffffffffffffffffffff1681565b60008054906101000a900460ff1681565b60035481565b600060019054906101000a900473ffffffffffffffffffffffffffffffffffffffff1673ffffffffffffffffffffffffffffffffffffffff163373ffffffffffffffffffffffffffffffffffffffff16146102dc57600080fd5b60018060028111156102f1576102f06110a9565b5b60008054906101000a900460ff166002811115610311576103106110a9565b5b1461031b57600080fd5b600354821061035f576040517f08c379a000000000000000000000000000000000000000000000000000000000815260040161035690611989565b60405180910390fd5b60006002600084815260200190815260200160002090508060070160019054906101000a900460ff16156103c8576040517f08c379a00000000000000000000000000000000000000000000000000000000081526004016103bf906119f5565b60405180910390fd5b600060019054906101000a900473ffffffffffffffffffffffffffffffffffffffff1673ffffffffffffffffffffffffffffffffffffffff166108fc82600601549081150290604051600060405180830381858888f19350505050158015610434573d6000803e3d6000fd5b5060018160070160016101000a81548160ff0219169083151502179055507f1bcbf671da826c17400d29c1aae824460842b3cab060f7bda57d24ae0be72df1836040516104819190611154565b60405180910390a1505050565b600060019054906101000a900473ffffffffffffffffffffffffffffffffffffffff1681565b600060019054906101000a900473ffffffffffffffffffffffffffffffffffffffff1673ffffffffffffffffffffffffffffffffffffffff163373ffffffffffffffffffffffffffffffffffffffff161461050e57600080fd5b6000806002811115610523576105226110a9565b5b60008054906101000a900460ff166002811115610543576105426110a9565b5b1461054d57600080fd5b6003548210610591576040517f08c379a000000000000000000000000000000000000000000000000000000000815260040161058890611989565b60405180910390fd5b600060026000848152602001908152602001600020905080600601543410156105ef576040517f08c379a00000000000000000000000000000000000000000000000000000000081526004016105e690611a61565b60405180910390fd5b60016000806101000a81548160ff02191690836002811115610614576106136110a9565b5b0217905550505050565b60026020528060005260406000206000915090508060000154908060010160009054906101000a900473ffffffffffffffffffffffffffffffffffffffff169080600501805461066d90611ab0565b80601f016020809104026020016040519081016040528092919081815260200182805461069990611ab0565b80156106e65780601f106106bb576101008083540402835291602001916106e6565b820191906000526020600020905b8154815290600101906020018083116106c957829003601f168201915b5050505050908060060154908060070160009054906101000a900460ff16908060070160019054906101000a900460ff16905086565b60006060806060806000806000600354891061076d576040517f08c379a000000000000000000000000000000000000000000000000000000000815260040161076490611989565b60405180910390fd5b6000600260008b815260200190815260200160002060405180610120016040529081600082015481526020016001820160009054906101000a900473ffffffffffffffffffffffffffffffffffffffff1673ffffffffffffffffffffffffffffffffffffffff1673ffffffffffffffffffffffffffffffffffffffff1681526020016002820180548060200260200160405190810160405280929190818152602001828054801561083d57602002820191906000526020600020905b815481526020019060010190808311610829575b5050505050815260200160038201805480602002602001604051908101604052809291908181526020016000905b8282101561091757838290600052602060002001805461088a90611ab0565b80601f01602080910402602001604051908101604052809291908181526020018280546108b690611ab0565b80156109035780601f106108d857610100808354040283529160200191610903565b820191906000526020600020905b8154815290600101906020018083116108e657829003601f168201915b50505050508152602001906001019061086b565b5050505081526020016004820180548060200260200160405190810160405280929190818152602001828054801561096e57602002820191906000526020600020905b81548152602001906001019080831161095a575b5050505050815260200160058201805461098790611ab0565b80601f01602080910402602001604051908101604052809291908181526020018280546109b390611ab0565b8015610a005780601f106109d557610100808354040283529160200191610a00565b820191906000526020600020905b8154815290600101906020018083116109e357829003601f168201915b50505050508152602001600682015481526020016007820160009054906101000a900460ff161515151581526020016007820160019054906101000a900460ff161515151581525050905080602001518160400151826060015183608001518460a001518560c001518660e001518761010001519850985098509850985098509850985050919395975091939597565b83518551148015610aa2575082518551145b610ae1576040517f08c379a0000000000000000000000000000000000000000000000000000000008152600401610ad890611b2d565b60405180910390fd5b600060035490506040518061012001604052808281526020013373ffffffffffffffffffffffffffffffffffffffff16815260200187815260200186815260200185815260200184815260200183815260200160001515815260200160001515815250600260008381526020019081526020016000206000820151816000015560208201518160010160006101000a81548173ffffffffffffffffffffffffffffffffffffffff021916908373ffffffffffffffffffffffffffffffffffffffff1602179055506040820151816002019080519060200190610bc4929190610f26565b506060820151816003019080519060200190610be1929190610f73565b506080820151816004019080519060200190610bfe929190610f26565b5060a0820151816005019081610c149190611cf9565b5060c0820151816006015560e08201518160070160006101000a81548160ff0219169083151502179055506101008201518160070160016101000a81548160ff02191690831515021790555090505060036000815480929190610c7690611dfa565b919050555060008060006101000a81548160ff02191690836002811115610ca057610c9f6110a9565b5b02179055507f6fd27cafc21e294864d00231247466fbdcd6f25947bee21b90d78e4886b48dc681338888888888604051610ce09796959493929190611e42565b60405180910390a1505050505050565b600060019054906101000a900473ffffffffffffffffffffffffffffffffffffffff1673ffffffffffffffffffffffffffffffffffffffff163373ffffffffffffffffffffffffffffffffffffffff1614610d4a57600080fd5b6001806002811115610d5f57610d5e6110a9565b5b60008054906101000a900460ff166002811115610d7f57610d7e6110a9565b5b14610d8957600080fd5b6003548210610dcd576040517f08c379a0000000000000000000000000000000000000000000000000000000008152600401610dc490611989565b60405180910390fd5b60006002600084815260200190815260200160002090508060070160009054906101000a900460ff1615610e36576040517f08c379a0000000000000000000000000000000000000000000000000000000008152600401610e2d90611f19565b60405180910390fd5b600160009054906101000a900473ffffffffffffffffffffffffffffffffffffffff1673ffffffffffffffffffffffffffffffffffffffff166108fc82600601549081150290604051600060405180830381858888f19350505050158015610ea2573d6000803e3d6000fd5b5060018160070160006101000a81548160ff0219169083151502179055507f375b4005eeae25d0e37d56e1b3841d3bb394b277efa2548de3293f5dcb7a349383604051610eef9190611154565b60405180910390a160026000806101000a81548160ff02191690836002811115610f1c57610f1b6110a9565b5b0217905550505050565b828054828255906000526020600020908101928215610f62579160200282015b82811115610f61578251825591602001919060010190610f46565b5b509050610f6f9190610fcc565b5090565b828054828255906000526020600020908101928215610fbb579160200282015b82811115610fba578251829081610faa9190611cf9565b5091602001919060010190610f93565b5b509050610fc89190610fe9565b5090565b5b80821115610fe5576000816000905550600101610fcd565b5090565b5b808211156110095760008181611000919061100d565b50600101610fea565b5090565b50805461101990611ab0565b6000825580601f1061102b575061104a565b601f0160209004906000526020600020908101906110499190610fcc565b5b50565b600073ffffffffffffffffffffffffffffffffffffffff82169050919050565b60006110788261104d565b9050919050565b6110888161106d565b82525050565b60006020820190506110a3600083018461107f565b92915050565b7f4e487b7100000000000000000000000000000000000000000000000000000000600052602160045260246000fd5b600381106110e9576110e86110a9565b5b50565b60008190506110fa826110d8565b919050565b600061110a826110ec565b9050919050565b61111a816110ff565b82525050565b60006020820190506111356000830184611111565b92915050565b6000819050919050565b61114e8161113b565b82525050565b60006020820190506111696000830184611145565b92915050565b6000604051905090565b600080fd5b600080fd5b61118c8161113b565b811461119757600080fd5b50565b6000813590506111a981611183565b92915050565b6000602082840312156111c5576111c4611179565b5b60006111d38482850161119a565b91505092915050565b60006111e78261104d565b9050919050565b6111f7816111dc565b82525050565b600081519050919050565b600082825260208201905092915050565b60005b8381101561123757808201518184015260208101905061121c565b60008484015250505050565b6000601f19601f8301169050919050565b600061125f826111fd565b6112698185611208565b9350611279818560208601611219565b61128281611243565b840191505092915050565b60008115159050919050565b6112a28161128d565b82525050565b600060c0820190506112bd6000830189611145565b6112ca60208301886111ee565b81810360408301526112dc8187611254565b90506112eb6060830186611145565b6112f86080830185611299565b61130560a0830184611299565b979650505050505050565b600081519050919050565b600082825260208201905092915050565b6000819050602082019050919050565b6113458161113b565b82525050565b6000611357838361133c565b60208301905092915050565b6000602082019050919050565b600061137b82611310565b611385818561131b565b93506113908361132c565b8060005b838110156113c15781516113a8888261134b565b97506113b383611363565b925050600181019050611394565b5085935050505092915050565b600081519050919050565b600082825260208201905092915050565b6000819050602082019050919050565b600082825260208201905092915050565b6000611416826111fd565b61142081856113fa565b9350611430818560208601611219565b61143981611243565b840191505092915050565b6000611450838361140b565b905092915050565b6000602082019050919050565b6000611470826113ce565b61147a81856113d9565b93508360208202850161148c856113ea565b8060005b858110156114c857848403895281516114a98582611444565b94506114b483611458565b925060208a01995050600181019050611490565b50829750879550505050505092915050565b6000610100820190506114f0600083018b6111ee565b8181036020830152611502818a611370565b905081810360408301526115168189611465565b9050818103606083015261152a8188611370565b9050818103608083015261153e8187611254565b905061154d60a0830186611145565b61155a60c0830185611299565b61156760e0830184611299565b9998505050505050505050565b600080fd5b7f4e487b7100000000000000000000000000000000000000000000000000000000600052604160045260246000fd5b6115b182611243565b810181811067ffffffffffffffff821117156115d0576115cf611579565b5b80604052505050565b60006115e361116f565b90506115ef82826115a8565b919050565b600067ffffffffffffffff82111561160f5761160e611579565b5b602082029050602081019050919050565b600080fd5b6000611638611633846115f4565b6115d9565b9050808382526020820190506020840283018581111561165b5761165a611620565b5b835b818110156116845780611670888261119a565b84526020840193505060208101905061165d565b5050509392505050565b600082601f8301126116a3576116a2611574565b5b81356116b3848260208601611625565b91505092915050565b600067ffffffffffffffff8211156116d7576116d6611579565b5b602082029050602081019050919050565b600080fd5b600067ffffffffffffffff82111561170857611707611579565b5b61171182611243565b9050602081019050919050565b82818337600083830152505050565b600061174061173b846116ed565b6115d9565b90508281526020810184848401111561175c5761175b6116e8565b5b61176784828561171e565b509392505050565b600082601f83011261178457611783611574565b5b813561179484826020860161172d565b91505092915050565b60006117b06117ab846116bc565b6115d9565b905080838252602082019050602084028301858111156117d3576117d2611620565b5b835b8181101561181a57803567ffffffffffffffff8111156117f8576117f7611574565b5b808601611805898261176f565b855260208501945050506020810190506117d5565b5050509392505050565b600082601f83011261183957611838611574565b5b813561184984826020860161179d565b91505092915050565b600080600080600060a0868803121561186e5761186d611179565b5b600086013567ffffffffffffffff81111561188c5761188b61117e565b5b6118988882890161168e565b955050602086013567ffffffffffffffff8111156118b9576118b861117e565b5b6118c588828901611824565b945050604086013567ffffffffffffffff8111156118e6576118e561117e565b5b6118f28882890161168e565b935050606086013567ffffffffffffffff8111156119135761191261117e565b5b61191f8882890161176f565b92505060806119308882890161119a565b9150509295509295909350565b7f496e76616c6964206f72646572206e756d626572000000000000000000000000600082015250565b6000611973601483611208565b915061197e8261193d565b602082019050919050565b600060208201905081810360008301526119a281611966565b9050919050565b7f5061796d656e7420616c72656164792072657665727465640000000000000000600082015250565b60006119df601883611208565b91506119ea826119a9565b602082019050919050565b60006020820190508181036000830152611a0e816119d2565b9050919050565b7f496e636f7272656374207061796d656e7420616d6f756e740000000000000000600082015250565b6000611a4b601883611208565b9150611a5682611a15565b602082019050919050565b60006020820190508181036000830152611a7a81611a3e565b9050919050565b7f4e487b7100000000000000000000000000000000000000000000000000000000600052602260045260246000fd5b60006002820490506001821680611ac857607f821691505b602082108103611adb57611ada611a81565b5b50919050565b7f496e76616c6964206974656d2064657461696c73000000000000000000000000600082015250565b6000611b17601483611208565b9150611b2282611ae1565b602082019050919050565b60006020820190508181036000830152611b4681611b0a565b9050919050565b60008190508160005260206000209050919050565b60006020601f8301049050919050565b600082821b905092915050565b600060088302611baf7fffffffffffffffffffffffffffffffffffffffffffffffffffffffffffffffff82611b72565b611bb98683611b72565b95508019841693508086168417925050509392505050565b6000819050919050565b6000611bf6611bf1611bec8461113b565b611bd1565b61113b565b9050919050565b6000819050919050565b611c1083611bdb565b611c24611c1c82611bfd565b848454611b7f565b825550505050565b600090565b611c39611c2c565b611c44818484611c07565b505050565b5b81811015611c6857611c5d600082611c31565b600181019050611c4a565b5050565b601f821115611cad57611c7e81611b4d565b611c8784611b62565b81016020851015611c96578190505b611caa611ca285611b62565b830182611c49565b50505b505050565b600082821c905092915050565b6000611cd060001984600802611cb2565b1980831691505092915050565b6000611ce98383611cbf565b9150826002028217905092915050565b611d02826111fd565b67ffffffffffffffff811115611d1b57611d1a611579565b5b611d258254611ab0565b611d30828285611c6c565b600060209050601f831160018114611d635760008415611d51578287015190505b611d5b8582611cdd565b865550611dc3565b601f198416611d7186611b4d565b60005b82811015611d9957848901518255600182019150602085019450602081019050611d74565b86831015611db65784890151611db2601f891682611cbf565b8355505b6001600288020188555050505b505050505050565b7f4e487b7100000000000000000000000000000000000000000000000000000000600052601160045260246000fd5b6000611e058261113b565b91507fffffffffffffffffffffffffffffffffffffffffffffffffffffffffffffffff8203611e3757611e36611dcb565b5b600182019050919050565b600060e082019050611e57600083018a611145565b611e6460208301896111ee565b8181036040830152611e768188611370565b90508181036060830152611e8a8187611465565b90508181036080830152611e9e8186611370565b905081810360a0830152611eb28185611254565b9050611ec160c0830184611145565b98975050505050505050565b7f44656c697665727920616c726561647920636f6e6669726d6564000000000000600082015250565b6000611f03601a83611208565b9150611f0e82611ecd565b602082019050919050565b60006020820190508181036000830152611f3281611ef6565b905091905056fea2646970667358221220ef0d1fec9257c145e1f042f4f0ac167f989abb2c4e44a66d62f299ca116a768f64736f6c63430008120033",
  "linkReferences": {},
  "deployedLinkReferences": {}
}